:100000000C942A000C943F000C943F000C943F0089
:100010000C943F000C943F000C943F000C943F0064
:100020000C943F000C943F000C943F000C943F0054
:100030000C943F000C943F000C943F000C943F0044
:100040000C943F000C943F000C943F000C943F0034
:100050000C943F0011241FBECFE5D8E0DEBFCDBF1A
:1000600010E0A0E6B0E0E0E7F7E002C005900D92F6
:10007000AA36B107D9F70E9469010C94B6030C9413
:10008000000095B39F7795BB82BB85B3806485BB29
:10009000000085B38F7B85BB83EF91E00197F1F77B
:1000A00000C0000008958FEF81BB84B3806C84BBD7
:1000B00087EA91E60197F1F700C0000088E30E940B
:1000C00041008EE00E94410086E00E94410081E0F4
:1000D0000E944100089595B3906895BB82BB85B39B
:1000E000806485BB000085B38F7B85BB83EF91E087
:1000F0000197F1F700C000000895CF93DF93EC0162
:1001000003C021960E946B0088818111FACFDF9194
:10011000CF910895811102C080E801C080EC860F64
:100120000E9441000895FC01CB0199233CF42DE28B
:10013000208391958195910941503196242F30E08B
:10014000DF01A20FB31F21503109E20FF31F1C92F0
:1001500020E030E012C01816190654F46AE070E08E
:100160000E948E03805D8083862F972F319703C076
:1001700050E3508331972F5F3F4F642F70E0261775
:1001800037074CF308950F931F93CF93DF93CDB7A9
:10019000DEB760970FB6F894DEBF0FBECDBF8C01FF
:1001A00060E080E00E948A0044E0B801CE01019640
:1001B0000E94930080E690E00E947D00CE010196AF
:1001C0000E947D0086E690E00E947D0060960FB65A
:1001D000F894DEBF0FBECDBFDF91CF911F910F917D
:1001E000089580EB87BB87B38F7B87BB80E58DB994
:1001F00081E08EB908958FB9779BFECF8FB10895B6
:10020000CF93C82F869598B39F7E98BB88610E9434
:10021000FB008C2F8295880F880F807C0E94FB004A
:10022000C82F80E00E94FB0098B3906198BBCF700C
:100230002C2F30E0322F2227A901482BCA01CF9161
:1002400008958F929F92AF92BF92CF92DF92EF92DA
:10025000FF92BC0180E090E00E94930220E030E039
:1002600040EA5AE30E9421036B017C0120E030E068
:100270004AE754E40E9421034B015C01A701960167
:1002800060E070E080EA90E40E947E019B01AC0196
:10029000C501B4010E94EB0120E030E048EC52E4DB
:1002A0000E947E0128EB3EE145EC5EE30E94EB01FB
:1002B00020E030E0A9010E947F010E945D02CB0195
:1002C000FF90EF90DF90CF90BF90AF909F908F9076
:1002D00008950E9453000E94F10080E00E940001F6
:1002E0000E9421010E94C3002FE38DE093E0215082
:1002F00080409040E1F700C00000EFCF5058BB278E
:10030000AA270E9496010C94E7020E94D90238F0B5
:100310000E94E00220F039F49F3F19F426F40C9477
:10032000D6020EF4E095E7FB0C94D002E92F0E9470
:10033000F80258F3BA17620773078407950720F08D
:1003400079F4A6F50C941A030EF4E0950B2EBA2F4F
:10035000A02D0B01B90190010C01CA01A0011124CB
:10036000FF27591B99F0593F50F4503E68F11A1677
:10037000F040A22F232F342F4427585FF3CF469508
:1003800037952795A795F0405395C9F77EF41F162A
:10039000BA0B620B730B840BBAF09150A1F0FF0FF4
:1003A000BB1F661F771F881FC2F70EC0BA0F621FE0
:1003B000731F841F48F4879577956795B795F795D0
:1003C0009E3F08F0B0CF9395880F08F09927EE0F65
:1003D0009795879508950E94FF010C94E7020E946B
:1003E000E00258F00E94D90240F029F45F3F29F062
:1003F0000C94D00251110C941B030C94D6020E9451
:10040000F80268F39923B1F3552391F3951B550B2B
:10041000BB27AA2762177307840738F09F5F5F4FD7
:10042000220F331F441FAA1FA9F335D00E2E3AF016
:10043000E0E832D091505040E695001CCAF72BD02E
:10044000FE2F29D0660F771F881FBB1F261737077F
:100450004807AB07B0E809F0BB0B802DBF01FF27B1
:1004600093585F4F3AF09E3F510578F00C94D002BC
:100470000C941B035F3FE4F3983ED4F38695779585
:100480006795B795F7959F5FC9F7880F911D96956A
:10049000879597F90895E1E0660F771F881FBB1FC6
:1004A000621773078407BA0720F0621B730B840B73
:1004B000BA0BEE1F88F7E09508950E9464026894D5
:1004C000B1110C941B0308950E94000388F09F57FC
:1004D00098F0B92F9927B751B0F0E1F0660F771F68
:1004E000881F991F1AF0BA95C9F714C0B13091F05E
:1004F0000E941A03B1E008950C941A03672F782F15
:100500008827B85F39F0B93FCCF386957795679522
:10051000B395D9F73EF490958095709561957F4F8E
:100520008F4F9F4F0895E89409C097FB3EF4909534
:100530008095709561957F4F8F4F9F4F9923A9F0BC
:10054000F92F96E9BB279395F6958795779567954B
:10055000B795F111F8CFFAF4BB0F11F460FF1BC08F
:100560006F5F7F4F8F4F9F4F16C0882311F096E922
:1005700011C0772321F09EE8872F762F05C06623D0
:1005800071F096E8862F70E060E02AF09A95660F89
:10059000771F881FDAF7880F9695879597F9089542
:1005A00097F99F6780E870E060E008959FEF80EC26
:1005B000089500240A9416161706180609060895C9
:1005C00000240A9412161306140605060895092E2F
:1005D0000394000C11F4882352F0BB0F40F4BF2B9E
:1005E00011F460FF04C06F5F7F4F8F4F9F4F0895DE
:1005F00057FD9058440F551F59F05F3F71F04795D4
:10060000880F97FB991F61F09F3F79F087950895B8
:10061000121613061406551FF2CF4695F1DF08C0D7
:10062000161617061806991FF1CF869571056105F4
:1006300008940895E894BB2766277727CB0197F99C
:1006400008950E9434030C94E7020E94D90238F006
:100650000E94E00220F0952311F00C94D0020C943B
:10066000D60211240C941B030E94F80270F3959F8C
:10067000C1F3950F50E0551F629FF001729FBB2799
:10068000F00DB11D639FAA27F00DB11DAA1F649F35
:100690006627B00DA11D661F829F2227B00DA11DE8
:1006A000621F739FB00DA11D621F839FA00D611D6E
:1006B000221F749F3327A00D611D231F849F600D8F
:1006C000211D822F762F6A2F11249F5750409AF0B8
:1006D000F1F088234AF0EE0FFF1FBB1F661F771F44
:1006E000881F91505040A9F79E3F510580F00C940F
:1006F000D0020C941B035F3FE4F3983ED4F386953D
:1007000077956795B795F795E7959F5FC1F7FE2BAE
:10071000880F911D9695879597F9089597FB072E59
:1007200016F4009407D077FD09D00E94A20307FCBD
:1007300005D03EF4909581959F4F089570956195F1
:100740007F4F0895AA1BBB1B51E107C0AA1FBB1F07
:10075000A617B70710F0A61BB70B881F991F5A954D
:10076000A9F780959095BC01CD010895F894FFCF2D
:0A07700054656D703A005F4300000D
:00000001FF
